:020000040000FA
:100000007003001081010000890100008B010000D5
:100010008D0100008F010000910100000000000030
:10002000000000000000000000000000930100003C
:1000300095010000000000009701000099010000F8
:100040009B010000F90100009B0100009B010000E2
:100050009B0100009B0100009B0100009B01000030
:100060009B0100009B0100009B0100009B01000020
:100070009B0100009B0100009B0100009B01000010
:100080009B0100009B0100009B0100009B01000000
:100090009B0100009B0100009B0100009B010000F0
:1000A0009B0100009B0100009B0100009B010000E0
:1000B0009B0100009B0100009B0100009B010000D0
:1000C0009B01000000F002F800F04AF80AA090E856
:1000D000000C82448344AAF10107DA4501D100F003
:1000E0003FF8AFF2090EBAE80F0013F0010F18BF86
:1000F000FB1A43F001031847B4100000D4100000AD
:10010000103A24BF78C878C1FAD8520724BF30C843
:1001100030C144BF04680C60704700000023002415
:1001200000250026103A28BF78C1FBD8520728BF07
:1001300030C148BF0B607047642900F01B826F29F3
:1001400000F0AA80002070471FB59DE8030000F072
:10015000EBFD00F0CFFA1FBD10B500F034FB10BD71
:1001600000F097FB1146FFF7EFFF00F027F800F0D3
:1001700087FD03B4FFF7F0FF03BC00F067FF00004A
:100180000948804709480047FEE7FEE7FEE7FEE72B
:10019000FEE7FEE7FEE7FEE7FEE7FEE70448054967
:1001A000034A054B7047000033040000C5000000FF
:1001B00070010010700300107001001013480068F7
:1001C00040F002001149C439C1F8C4004EF656206F
:1001D0004FF04021886103204861012001218140C6
:1001E0004209920002F1E022C2F8001100BF4FF074
:1001F000402148600020704710B54FF0FF34224680
:10020000214603A000F008F810BD0000C4C00F4054
:1002100025642C20256F00000FB4044910B503AAF3
:10022000029800F03DFA10BC5DF814FB6400001069
:100230002DE9F0410E460446002020622046E16888
:10024000884730B3252805D0D4E901219047206A9A
:10025000401CF2E7E168204600278847050018D0D7
:10026000A5F14100192802D820354FF40067324625
:10027000294620462760FFF75FFF40B1012804D0E0
:10028000F61D26F007060836D8E7361DD6E72846BD
:10029000DAE7206ABDE8F08170B5044621461068AF
:1002A000AFF30080002104F1240505E000F007020F
:1002B0003032C0086A54491C0028F7D12068002356
:1002C00008A2050708D500F02000084304D0E06923
:1002D000012305A2401EE0612046BDE8704000F009
:1002E00085B9000000000000300000007047704732
:1002F0007047007B00F0800070477047FFFFFFFFF2
:1003000095480068C0F30160032860D192488430AA
:10031000006800F0030030B1012820D0022839D055
:10032000032853D100E000BF8B480068C0F30E00E3
:10033000401C40008949484387498839D1F88810D2
:10034000C1F30741491CB0FBF1F183487C300068E0
:10035000C0B2401CB1FBF0F08149086036E07E4835
:100360000068C0F30E00401C40007E4948437A49B3
:100370008839D1F88810C1F30741491CB0FBF1F16D
:1003800075487C300068C0B2401CB1FBF0F0744985
:1003900008601BE070480068C0F30E00401C40007D
:1003A0004FF4FA4148436C498839D1F88810C1F3B9
:1003B0000741491CB0FBF1F167487C300068C0B2CE
:1003C000401CB1FBF0F06649086000BF30E06248B5
:1003D0008430006800F0030030B1012810D00228FA
:1003E00019D0032823D100E000BF5B487C300068AF
:1003F000C0B2401C5949B1FBF0F05949086016E001
:1004000055487C300068C0B2401C5649B1FBF0F042
:10041000534908600BE050487C300068C0B2401C73
:100420004FF4FA41B1FBF0F04D49086000BF00BF46
:10043000704720204C49086000BF4B48006800F01E
:1004400040000028F9D0032043497C310860012096
:1004500041498839C1F80C0144483F49091F0860E7
:10046000AA203D49091D08605520086001203A492D
:1004700008390860AA203849091D08605520364906
:100480008839C1F88C0000BF3348006800F08060F4
:100490000028F9D00320304908390860AA202E49E5
:1004A0008839C1F88C0055202B49091D086000BF10
:1004B0002948006800F040700028F9D02320264920
:1004C0001C310860AA2024498839C1F8AC005520A5
:1004D00021492431086001201F4918310860AA20F1
:1004E0001D492431086055201B498839C1F8AC00EA
:1004F00000BF19482030006800F480600028F8D060
:100500000320154918310860AA2013498839C1F819
:10051000AC00552010492431086000BF0E4820303F
:10052000006800F440700028F8D000200E4908311F
:10053000086009498839C1F8AC010D4806493C31C9
:100540000860002008492831086043F23A00024957
:10055000883908607047000088C00F4000093D00DE
:1005600000000010001BB700A0C10F406300050091
:10057000DE8728042DE9F04106460024106875291D
:10058000314616A510D0AFF30080002802DA4042B1
:1005900013A507E031688A0701D512A502E04907D3
:1005A00004D511A5012401E0AFF3008000210A2247
:1005B00006F1240709E0B0FBF2FCB0FBF2F302FB0A
:1005C0001C00303078541846491C0028F3D12346CB
:1005D0002A463046BDE8F04100F008B800000000AF
:1005E0002D0000002B000000200000002DE9F04746
:1005F0000D4699469246044600F124080168880693
:1006000004D5E06921F01001216000E00120A8423A
:1006100001DD471B00E00027A1697A1902EB090000
:10062000081AA0612078C00602D42046AFF30080EB
:10063000002608E0D4E901211AF806009047206A54
:10064000401C761C20624E45F4DB2078C0060AD59B
:100650002046AFF3008006E0D4E901213020904726
:10066000206A401C2062381EA7F10107F4DC07E075
:10067000D4E9012118F805009047206A401C206247
:10068000281EA5F10105F3DC2046AFF30080207899
:10069000000602D50220BDE8F0870120FBE700003C
:1006A000074B70B50D467B4400F011F80446284610
:1006B000FFF71FFE10B14FF0FF3070BD204670BD38
:1006C000DB0A000001694A1C02610878704700B526
:1006D0008FB0CDE901310021059105497944CDE97B
:1006E000031011466846FFF7A3FD0FB000BD0000E0
:1006F000E5FFFFFF10B54248542100F0CEFA414813
:10070000542100F0CAFA4048542100F0C6FA3F498B
:100710003B483C4A3F4B08603D490A603A491960F2
:10072000531C0365481C1065012008653B48344A8A
:1007300039A1784400F008FA20B9384878440A38DA
:1007400000F0A4FA37482F4A35A1784400F0FCF9AC
:1007500020B9344878440A3800F098FA32482A4AD6
:100760002FA1784400F0F0F920B92F4878440A38D6
:1007700000F08CFA40232248DC000021224600F0E1
:10078000BFF920B125487844543800F07FFA1D485D
:1007900022464023002100F0B3F920B121487844DB
:1007A000543800F073FA184822461023002100F054
:1007B000A7F9002806D01C487844BDE810405638F8
:1007C00000F064BA10BD104870B5006D20F001044F
:1007D0000B4800F02FFA0B4800F02CFA0A4800F002
:1007E00029FA09E0206D20F00105204600F022FAE8
:1007F000204600F073F82C46002CF3D170BD0000A9
:100800001000001064000010B80000100400001078
:10081000080000100C00001072000000680A0000C0
:1008200077000000540A0000400A00000EB5CDE930
:10083000000100F0EBFB029069460120ABBE0EBD4B
:1008400008B5694600900220ABBE08BD1FB58DE813
:10085000070069460520ABBE04B010BD1FB58DE88A
:100860000F0069460620ABBEF6E708B56946009062
:100870000920ABBE08BD1CB5CDE9000169460A20C0
:10088000ABBE1CBD704708B5694600900C20ABBEDE
:1008900008BD754600F028FAAE4605006946534685
:1008A00020F00700854618B020B5FFF777FCBDE8BB
:1008B00020404FF000064FF000074FF000084FF0C7
:1008C000000B21F00701AC46ACE8C009ACE8C00958
:1008D000ACE8C009ACE8C0098D46704770B5044665
:1008E000051F00F005FA0068002C14BF446870BDB5
:1008F000002C18BFAC423CBF20466468F8D30168A6
:100900000A18AA4218BF456003D12A680546114457
:10091000016028684119A1421CBF6C6070BD61680C
:10092000696021680844286070BD2DE9F0470546DC
:100930000C46C86820F4201040F48000C86080068F
:1009400002D5084600F021FBE06841F282014FF039
:10095000FF390140022903D0204600F0BFFAB5E07C
:1009600000F42041B1F5004F0FD1C00306D56168F6
:10097000E06A884200D80846606006E02069E062CC
:1009800060606069FFF77FFFA061A0680022EEB29F
:1009900000280DDAE1688B050AD4C043A06041F459
:1009A00090302260E0606068411C61600670A5E0E4
:1009B000E0689046226040F40050E060206968BB27
:1009C0006069FFF752FF012704F12405A0B1A08957
:1009D00010F4407F08D0E06900F0D5F9206118B12B
:1009E000E06840F4006016E0E7612561E06820F40B
:1009F000407040F480600EE0E06900F0C4F9002827
:100A00002061F1D0E06840F4006010F4407FE060C5
:100A100002D140F48070E06020696060E068256980
:100A20006FF0010AC1051FD56168E06A884200D8ED
:100A30000846411B04D02246284600F059FAF0BB74
:100A4000E068010203D5E562C4E9015854E0691C7D
:100A5000E1626160E16940F48030491EC4E902103E
:100A600030462E70BDE8F087010202D500F48032D6
:100A70000AE06068411C61600670E0680A2E40F47C
:100A80008030E06006D00022E16A6068814203D9CC
:100A90000B4602E00122F7E70346A7895B1B7F05AF
:100AA00003D4E7699F4200DDE2B1814200D80146EC
:100AB000E5620F1AC4E90158002B09DD00E005E0EA
:100AC00022461946284600F013FA08B14846C9E7FD
:100AD00047B1A069E5626560C01BA061E06840F0B5
:100AE0001000E060E068000208D56168A069E56276
:100AF000491B08446560A0615046B3E73046B1E742
:100B000070B5C468A50713D0650211D4B2F5807F13
:100B100009D0B2F5007F06D0B2F5806F08D101236D
:100B200000F1240106E05D1E6FF07F46B54201D35F
:100B3000012070BD0161C361416024F47061114303
:100B4000C160002070BD00002DE9F0410C46074651
:100B50001646104600F06EF82078611C61280AD015
:100B6000722802D077283CD102E00125002405E05C
:100B70000225042402E0082448F2020511F8010BC2
:100B80002B2806D0622809D011F8010C74280AD04D
:100B90000BE045F0030544F00204EFE745F00405DF
:100BA00044F00104EAE744F0100438462146FFF718
:100BB0003DFE411C15D00021316171604FF4007180
:100BC000F560F1617061200704D5304602220021F2
:100BD00000F008F9306D40F0010030653046BDE8A6
:100BE000F0810020FBE72DE9F0410D460646104C50
:100BF000206DC10704D0410804D020F00104F7E7BC
:100C000022460EE0542000F0BEF807000ED0206D02
:100C100047F00101084354212065384600F03DF8B3
:100C20003A4629463046BDE8F0418DE70020D6E738
:100C3000100000102DE9F04704464FF000094FF076
:100C4000FF37C568D4E90486A80707D0204600F01E
:100C500079F93046FFF7F4FD002802DA3846BDE89E
:100C6000F087280502D54046FFF738FE4C21204684
:100C700000F013F8206D20F0010020654846EEE7F3
:100C80000446AFF300802046FFF773FA10B500F07A
:100C9000A3F9BDE8104000F099B94FF0000200B58B
:100CA000134694469646203922BFA0E80C50A0E88F
:100CB0000C50B1F12001BFF4F7AF090728BFA0E83D
:100CC0000C5048BF0CC05DF804EB890028BF40F809
:100CD000042B08BF704748BF20F8022B11F0804F4B
:100CE00018BF00F8012B7047004870470C01001036
:100CF00000487047140100107047704770477047F4
:100D000038B504460A4600206946AFF30080002843
:100D100008BF38BD02460099204600F0A4F9012022
:100D200038BD012000F0F3B9F8B5AFF300800546F7
:100D300000200C46102000BF0646A819A0420DD97D
:100D4000324669460020AFF30080070008BF00F07C
:100D5000DEF90098A04218BF0546C419FFF7C8FF86
:100D600005600746F01D20F007004619284600F0F0
:100D700073F9B44208BFF8BDA21B31463868BDE81C
:100D8000F84000F070B970B50646FFF7B1FF05688E
:100D900006F10B0020F00704B4429CBF002070BD98
:100DA0002B466A68BAB11068A04210D304F108015A
:100DB00088423CBF5068586007D3516810194160A1
:100DC0001168091B016058601460101D70BD134646
:100DD0005268002AE7D121462846FFF791FF0028F4
:100DE000DED170BD2DE9F041044616460D46476937
:100DF000007B80072ED03846FFF737FD50BB3EB34F
:100E0000012E02D0022E25D104E0204600F045F943
:100E100005441DE03846FFF736FDE168002841F043
:100E20001001E16005DA204600F058F80120BDE825
:100E3000F081C9030BD56268E16A914200D811467E
:100E4000A26911442269891A814200DD08460544DD
:100E5000002D01DA0220EAE7E16A6068E268814277
:100E600006D29103E06203D522F4003141F0100272
:100E7000A6690027AE4213DCE16A814201D90B4624
:100E800000E0034603EB060C2369ACEB030CAC4516
:100E900006DD814201D98C4600E084469C4505D19F
:100EA000A760276042F02000A5620DE0AD1BE66957
:100EB000AE1B8142A66000D90846C01A281A2060DD
:100EC0005819606022F0200003490840E0600020CB
:100ED00084F84870ABE70000BFCFD7FFC16821F4AA
:100EE000001141F08001C160002181600160704704
:100EF0002DE9F047814614460E464FF0FF38324840
:100F0000D5685769054209D03846A169FFF7B3FC97
:100F1000002811DB2C48C0430540E5602B463246D3
:100F200049463846FFF792FCA16920F00042B21A08
:100F300011440028A16103D02046FFF7CFFF4046AF
:100F4000BDE8F08770B504460569C06A61688842EB
:100F500000D80846E16821F42011E160C90312D5E8
:100F6000A84208D02246411B2846FFF7C1FF10B116
:100F70004FF0FF3070BD0020E562C4E90150E06829
:100F800020F48030E060002070BD10B50446C068D9
:100F900020F02000E060A16AA06988420DD02046C0
:100FA000FFF7D0FFE06820F4405040F01000E06010
:100FB000A06AA0612069E062606044F24001E068DC
:100FC0008843E06010BD000010000200002801D03E
:100FD00000F03CB87047000010B5014602A000F0D8
:100FE0007DF8012010BD000053494752545245443A
:100FF0003A2052656469726563743A2063616E27B2
:1010000074206F70656E3A200000000010B5431C1C
:1010100002E010F8011B71B18107FAD14FF00132E3
:1010200002C88C1A8C4314EAC211F9D0C01A0A06FD
:1010300003D0C01E10BDC01A10BD0A0401D0801E0E
:1010400010BD0902FCD0401E10BD0000014918204F
:10105000ABBEFEE72600020000210160C0E90110DE
:10106000704710207047034640688C46002818BF20
:1010700088423CBF03464068F8D318681844884249
:1010800007D00CF1030020F00700001D411A521A8E
:101090000146081D0A60FFF721BC10B50146C26871
:1010A000900703D0900607D5886A0AE000F03EF862
:1010B00001210160881E10BD8B69486818440B69C6
:1010C000C01A91F848301BB191F84910401A10BD70
:1010D0001103FCD50028FADD401E10BD70B5054691
:1010E0000C460A2000E06D1C00F018F835B1287895
:1010F0000028F8D102E0641C00F010F814B1207848
:101100000028F8D1BDE870400A2000F007B810B5FB
:1011100000F010F8BDE81040FFF758BF08B5694669
:101120008DF800000320ABBE08BD000000487047EA
:101130000C01001010B5012805D0002103A0FFF715
:10114000CDFF012010BD09A1F8E700005349475227
:10115000544D454D3A204F7574206F662068656187
:1011600070206D656D6F7279000000003A2048654F
:101170006170206D656D6F727920636F727275702A
:10118000746564008A68002A01DCFFF7CEBB521E3A
:101190008A604A68C0B2531C4B60107070473A7442
:1011A00074003A7474003A7474000000CC110000AA
:1011B000000000101000000000010000DC11000021
:1011C00010000010600300001C01000000E1F505A4
:0C11D00000000000000000000000000013
:04000005000000C532
:00000001FF
